:020000040800F2
:100000001809002075010008852000083B1F000822
:1000100000000000000000000000000000000000E0
:10002000000000000000000000000000892000081F
:100030000000000000000000872000088B2000085E
:10004000A5010008A5010008A5010008A5010008F8
:10005000A5010008A5010008A5010008A5010008E8
:10006000A5010008A5010008A5010008A5010008D8
:10007000A5010008A5010008A5010008A5010008C8
:10008000A50100080000000000000000A501000814
:1000900000000000FD200008A5010008A5010008DF
:1000A00000000000A5010008A5010008BD2500080A
:1000B000CD25000800000000A5010008A5010008EA
:1000C00000F002F800F046F80CA030C808382418F8
:1000D0002D18A246671EAB4654465D46AC4201D180
:1000E00000F038F87E460F3E0FCCB646012633426C
:1000F00000D0FB1AA246AB46334318473C2700000A
:100100005C270000103A02D378C878C1FAD85207A9
:1001100001D330C830C101D504680C6070470000BD
:100120000023002400250026103A01D378C1FBD813
:10013000520700D330C100D50B6070471FB500983F
:10014000019900F00AFC00F023FA1FBD10B500F081
:100150008BFA10BD00F0BAFA1146FFF7EFFF02F07C
:1001600003FB00F0CBFB03B4FFF7F0FF03BC00F090
:1001700065FD00000F4880F308880F480168090EEC
:100180000E4A914205D10E480E4901600E480F49B2
:1001900001600F4880470F480047FEE7FEE7FEE793
:1001A000FEE7FEE7FEE700000B480C490C4A0D4B4A
:1001B0007047000018090020040000001F00000024
:1001C0001810024001000000000001400000000083
:1001D000FB200008C10000081803002018090020B7
:1001E0001805002018050020FEB5054610460C46EF
:1001F000184373D0AE468C460020AD1A01469C4190
:1002000067D36646002701243D46B61A9D4102D3B6
:1002100013463A462124654676462F04360C3E4363
:100220002D0CB61A9D4104D3150C1B042B4312044C
:100230001034654676462F06360A3E432D0AB61A16
:100240009D4104D3150E1B022B4312020834654650
:1002500076462F0736093E432D09B61A9D4104D331
:10026000150F1B012B431201241D65467646AF076F
:10027000B6083E43AD08B61A9D4104D3950F9B00C6
:100280002B439200A41C65467646EF0776083E4352
:100290006D08B61A9D411AD392185B41641C16E092
:1002A0000018764665464941B71A9D410191009074
:1002B00009D36046B11A98418E4684460098019948
:1002C0000025401C6941DD0752082A435B08641E73
:1002D000E6D57246634603B0F0BDFFE70020014655
:1002E000C046C0462A462346F5E700000FB405493C
:1002F00010B503AA029800F01BF910BC08BC04B0AA
:10030000184700001002002001E004C0091F042962
:10031000FBD28B0701D50280801CC90700D0027078
:10032000704700290BD0C30702D00270401C491E41
:10033000022904D3830702D50280801C891EE3E7CB
:100340000022EEE70022DFE7024670B50A4392077B
:100350002AD11E4DEE0104C808C9541B94433440F1
:1003600017D0D0B2D9B2401A2106014310D190B2B1
:1003700099B2401A210401430AD110021902000A5D
:10038000090A401A2102014302D1100E190E401A27
:1003900070BD9A42DFD010BA19BA884201D9012043
:1003A00070BD0020C04370BD02780B78401C491C12
:1003B000002A09D09A4207D102780B78401C491CC8
:1003C000002A01D09A42EFD0D01A70BD010101017C
:1003D000002203098B422CD3030A8B4211D3002342
:1003E0009C464EE003460B433CD4002243088B421C
:1003F00031D303098B421CD3030A8B4201D39446A9
:100400003FE0C3098B4201D3CB01C01A524183099B
:100410008B4201D38B01C01A524143098B4201D355
:100420004B01C01A524103098B4201D30B01C01A80
:100430005241C3088B4201D3CB00C01A52418308FA
:100440008B4201D38B00C01A524143088B4201D327
:100450004B00C01A5241411A00D201465241104687
:1004600070475DE0CA0F00D04942031000D34042FC
:10047000534000229C4603098B422DD3030A8B4232
:1004800012D3FC22890112BA030A8B420CD38901D0
:1004900092118B4208D3890192118B4204D38901B6
:1004A0003AD0921100E08909C3098B4201D3CB01F4
:1004B000C01A524183098B4201D38B01C01A5241A9
:1004C00043098B4201D34B01C01A524103098B42AD
:1004D00001D30B01C01A5241C3088B4201D3CB0098
:1004E000C01A524183088B4201D38B00C01A52417B
:1004F000D9D243088B4201D34B00C01A5241411A52
:1005000000D20146634652415B10104601D340427F
:10051000002B00D54942704763465B1000D3404230
:1005200001B50020C046C04602BD70477047704705
:10053000084B70B50D467B4400F013F8044628467E
:1005400000F022F8002802D00020C04370BD2046F1
:1005500070BD00001722000001694A1C0261087882
:10056000704700B58FB002910021059105490193B4
:100570007944039111460490684600F0ECF80FB0FE
:1005800000BD0000E5FFFFFFC06880210840704704
:1005900010B543485421FFF7D5FE42485421FFF7D8
:1005A000D1FE41485421FFF7CDFE40483C493D4B28
:1005B000404A01603E4803603B4810605A1C0A658F
:1005C000411C1965012101653C48354A3AA178442E
:1005D00000F0FAF8002804D1384878440C3800F0CC
:1005E00095F938482F4A36A1784400F0EDF80028F4
:1005F00004D1344878440C3800F088F932482A4A4B
:100600002FA1784400F0E0F8002804D12E48784467
:100610000C3800F07BF940232148DC000021224601
:1006200000F0ACF8002804D0244878445C3800F08E
:100630006DF91C4822464023002100F09FF8002855
:1006400004D0204878445C3800F060F9164822460F
:100650001023002100F092F8002804D01A487844B2
:100660005C3800F053F910BD0F4870B5006D4408B8
:100670000B48640000F01CF90A4800F019F90A4818
:1006800000F016F909E0206D450820466D0000F0E5
:100690000FF9204600F039F82C46002CF3D170BD3C
:1006A000BC01002010020020640200201000002085
:1006B0001400002018000020720000004C220000EE
:1006C000770000003922000027220000754600F064
:1006D00023F9AE46050069465346C008C00085466A
:1006E00018B020B5FFF760FD60BC00274908B6468A
:1006F0000026C0C5C0C5C0C5C0C5C0C5C0C5C0C531
:10070000C0C5403D49008D46704770B50446051F81
:1007100000F006F90068002C1AD0446801E0204679
:100720006468002C01D0AC42F9D301680A18AA42CF
:1007300004D12A6805468918016000E045602868F0
:100740004119A14205D1616869602168401828609B
:1007500070BD6C6070BDF8B50646002447688068BF
:1007600000903046F56803E00099B847641C3046B5
:10077000A8470028F8D12046F8BD000070B5C4682D
:10078000A50713D0650211D4D51FF93D0AD0FF3D4E
:100790006D1E07D0FF3DFF3D022D07D101462431DC
:1007A000012305E0074E5D1EB54201D3012070BD57
:1007B0000161C36141600F2109028C431443C4608D
:1007C000002070BDFFFFFF00F7B516460C4610462F
:1007D00000F06EF82078611C61280AD0722802D0DF
:1007E000772839D102E00125002404E00225042401
:1007F00001E02D4D08240222032301270878491C1B
:100800002B2806D0622807D02039C87F742807D04B
:1008100008E01D431443F1E7042005433C43EDE7A2
:10082000102004430098214601F036FF411C13D0EC
:100830000021316171600121F5604902F16170614F
:10084000200704D530460222002100F0E5F8306D83
:10085000384330653046FEBD0020FEBDF8B50D467C
:100860000646124C206DC10704D0410804D044084C
:100870006400F7E7224610E0542000F09BF80700E0
:1008800010D07908206D49000122114308435421FA
:1008900020653846FFF756FD3A4629463046FFF7B1
:1008A00093FFF8BD0020F8BD02800000BC010020CD
:1008B000FEB50446466900690F4F0190E5680020C7
:1008C0000090A80707D0204600F050F9304601F00C
:1008D000BFFE002801DA3846FEBD280502D5019882
:1008E000FFF713FF4C212046FFF72CFD206D400839
:1008F000400020650098FEBDFFFFFFFF10B50446D5
:10090000C046C0462046FFF72EFC10BD10B500F0D3
:100910007BF900F073F910BD00487047B802002061
:1009200000487047C002002070477047704770470A
:1009300038B504460A4600206946C046C04600282D
:1009400005D002462046009900F085F9012038BD07
:1009500010B5012000F0D4F910BDF8B5C046C0466E
:10096000054600200C461020C0460646A819A042A5
:100970000DD9324669460020C046C046070001D165
:1009800000F0BEF90098A04200D00546C419FFF758
:10099000C7FFF61D07460560F008C0004619284647
:1009A00000F052F9B44204D031463868A21B00F07E
:1009B00052F9F8BD70B50646FFF7B2FF056830463C
:1009C0000B30C408E400B44201D8002070BD686850
:1009D0002A46002818D00168A14211D30B462146AF
:1009E00008318B4208D3436801194B6003681B1B15
:1009F0000B605160046001E041685160001D70BDF2
:100A0000024640680028E6D121462846FFF790FFBD
:100A10000028DCD170BD0000F8B5044616460D462E
:100A20004769007B800730D0384601F027FE002858
:100A30002BD132461026002A25D0012A02D0022AC4
:100A400023D104E0204600F020F945191BE0384688
:100A500001F00CFEE16831430028E16004DA204631
:100A600000F054F80120F8BDC9030BD56268E16AB3
:100A7000914200D81146A26989182269891A8142D7
:100A800000DD08462D18002D01DA0220F8BDE16ACC
:100A90006068E268814206D29103E06203D50121D9
:100AA00049048A433243A669AE4211DCE16A8142BD
:100AB00001D90B4600E003469F192369FF1AAF4294
:100AC00006DD814201D90F4600E007469F4206D16C
:100AD000202002430020A060A56220600DE0AD1B35
:100AE000E669AE1B8142A66000D90846C01A281AE2
:100AF0002060581960602020824303480240002093
:100B0000E26040342072F8BDBFCFD7FFC1688022B9
:100B1000114392039143C1600021816001607047DD
:100B2000F7B514460E463348D5685769054209D0D3
:100B30003846A16901F0E4FD002811DB2D48C043CF
:100B40000540E5602B4632463846009901F0DCFD51
:100B50004200A1695208B21A89180028A16104D084
:100B60002046FFF7D3FF0020C043FEBD70B504460A
:100B70000569C06A6168884200D80846E1680522B4
:100B8000D2049143E160C90314D5A84209D022469A
:100B9000411B2846FFF7C4FF002802D00020C043B5
:100BA00070BDE56200206560A060E0680121090475
:100BB0008843E060002070BD10B50446C068202165
:100BC0008843E060A16AA06988420ED02046FFF702
:100BD000CDFFE06803210903884310210843E0604A
:100BE000A06AA0612069E06260600349E068084093
:100BF000E06010BD10000200BFBFFFFF10B500286D
:100C000001D000F01BF810BD10B5014602A000F0A5
:100C10005DF8012010BD000053494752545245442D
:100C20003A2052656469726563743A2063616E2785
:100C300074206F70656E3A20000000000149182092
:100C4000ABBEFEE72600020000210160416080602B
:100C500070471020704710B50346406801E0034616
:100C60004068002801D08842F9D31868C3188B4225
:100C700006D0CB1CD808C000001D411A521A0146EC
:100C8000081D0A60FFF741FD10BD10B50146C2689E
:100C9000900703D0900607D5886A0AE000F038F87C
:100CA00001210160881E10BD8B694868C0180B695E
:100CB000C01A40310B7A002B02D0497A401A10BD7D
:100CC0001103FCD50028FADD401E10BD70B50546A5
:100CD0000C460A2000E06D1C01F036FD002D06D008
:100CE00028780028F7D102E0641C01F02DFD002CCB
:100CF00002D020780028F7D10A2001F025FD70BD30
:100D000010B500F009F8FFF779FF10BD704700003B
:100D100000487047B802002010B5012805D0002116
:100D200003A0FFF7D3FF012010BD09A1F8E70000E1
:100D300053494752544D454D3A204F7574206F66C4
:100D40002068656170206D656D6F7279000000002C
:100D50003A2048656170206D656D6F727920636F10
:100D6000727275707465640030B5014620314B783D
:100D70000022022B04D0042383630A70012030BDBB
:100D800003681C680E25AC431C6003681C6864087B
:100D900064001C600123056C1C46C06BAC404460C1
:100DA0004B700A70002030BD70B500240146203120
:100DB0004A78022A03D004218163012416E00268E4
:100DC00013680E25AB431360026813685B085B0071
:100DD00013600122056C1346AB40C56B6B604A7013
:100DE00000220A70416B002900D08847204670BD60
:100DF00070B5044600F0E8F80546601C02D00448CF
:100E00000078241800F0E0F8401BA042FAD370BD2F
:100E100000000020F8B5002303240125B5E02E468C
:100E20009E40B44632407CD00E79B607B60F012EF4
:100E300001D0022E17D186682746B6465E00B7401D
:100E400000967646BE43B646CF68009EB7407646CB
:100E50003743876046686746BE430F79FF06FF0F3A
:100E60009F40374347600E79F643B6070ED0C668F9
:100E70002746B4465E00B646B7406646BE43B44613
:100E80008F687646B74066463743C7600E79B60727
:100E9000B60F022E14D1DE08B60036180096366A58
:100EA0005F07B446FE0E0F27B646B7406646BE4300
:100EB000B4460F697646B74066463743009E3762B0
:100EC00006682746B4465E00B646B7406646BE434F
:100ED0000F79B446BF07BF0F7646B7406646374323
:100EE00007604E68B603B60F4ED02B4FBE692E4337
:100EF000BE61BE699F08F607F60F284EBF00BE19F7
:100F00000096B6680F27B4469E07360FB646B74020
:100F10006646BE430927FF06B446B84202D1002701
:100F20000BE031E01E4FB84201D1012705E01D4F13
:100F3000B84201D1022700E005277646B740664651
:100F40003743009EB760184EB6684F689643FF025D
:100F500000D51643144FBE60FE684F689643BF022B
:100F600000D51643104FFE607E684F689643BF035E
:100F700000D516430C4F7E603E684F689643FF03D2
:100F800000D51643084A16605B1C0A681646DE4008
:100F900000D044E7F8BD000000100240000001400E
:100FA000000400480008004800040140426913465C
:100FB0000B401B0491430B4383617047002A01D00F
:100FC0008161704781627047014880687047000006
:100FD000000000200248816802788918816070470B
:100FE0000000002010B5064801681022114301607E
:100FF000032000F007F800F027F8002010BD0000E3
:101000000020024070B504460D4D7D202978C000B7
:10101000FFF7DEF901460B480068FFF7D9F900F049
:101020008BFB002809D1042C07D200222146401E48
:1010300000F02AF800206C6070BD012070BD000037
:10104000000000200C00002008B50848816901223A
:1010500011438161816911400091C26901040A4311
:10106000C261C0690840009008BD00000010024045
:10107000002805DBC106C90E01208840014908602F
:101080007047000000E100E010B501F0BFFA10BDAC
:10109000F8B5044600683E4DC00352D5E869002605
:1010A000C00007D4E96928040143E961E969014006
:1010B0000126009137480168C90510D401688215DE
:1010C00011430160FFF780FF074604E0FFF77CFF54
:1010D000C01B642824D82F480068C005F6D5286AAC
:1010E00003273F02384020D06168394081421CD03C
:1010F000286A2A6AB843012109040A432A622A6A33
:101100008A432A622862C0070FD0FFF75DFF009074
:1011100008E0FFF759FF0099411A1F48814201D9A1
:101120000320F8BD286A8007F3D5286A6168B843B0
:1011300008432862002E04D0E9690120000781439A
:10114000E9612078C00705D0286BA168800880007D
:10115000084328632078800605D5286B1021884332
:10116000E168084328632068800305D5286B802147
:1011700088436169084328632088400505D5286BAA
:10118000402188432169084328630020F8BD0000FE
:10119000001002400070004088130000F8B50F46B0
:1011A00006005ED03C4D2868C007C00FB84209D287
:1011B000286840084000384328602868C007C00FEE
:1011C000B8424ED13068354C81070CD5400704D564
:1011D000606807210902084360606068F021884365
:1011E000B168084360603078C0072BD07068012870
:1011F00010D0022810D0032811D0216889070029B7
:101200002FDA61688908890001436160FFF7DCFE1D
:10121000009010E0216803E021688901EFE7616B2D
:101220008903ECE7FFF7D0FE0099411A1C48814280
:1012300001D90320F8BD60680C210840716889005D
:101240008842EFD12868C007C00FB8420BD9286880
:1012500040084000384328602868C007C00FB842E3
:1012600001D00120F8BD3078400706D5606807211D
:1012700009028843F1680843606000F027F861685C
:10128000084A0906090F515CC84007490860032055
:10129000FFF7B8FE0020F8BD002002400010024019
:1012A00088130000062800080C00002004480549A7
:1012B00000684968044A4905490F515CC8407047B5
:1012C0000C000020001002401628000870B5154AD6
:1012D00051680C200B4603401348042B05D0134DD6
:1012E000082B03D00C2B00D1284670BD8B02104C6C
:1012F0001B0FE45CD26A0E4B1207120F1033C903A6
:101300009A5C890F022901D0032901D0002301E052
:10131000002328460021FEF767FF214601F05EF911
:1013200070BD00000010024000127A00006CDC0268
:10133000E6270008FEB5040070D02078F94EFA4D7B
:10134000C00748D068680007800F01281FD0686870
:101350000007800F022804D16868C003800F0228AC
:1013600015D06168012919D001208004002901D01D
:10137000052917D02968B14329602968814329606C
:10138000606800281BD0FFF71FFE074613E028689F
:10139000800320D560680028CED01CE02868304348
:1013A0002860EDE7296801432960F7E7FFF70CFEA5
:1013B000C01B642870D828688003F7D50BE0FFF7BE
:1013C00003FE074604E0FFF7FFFDC01B6428F1D8C9
:1013D00028688003F7D4207880073FD56868000725
:1013E000800F14D068680007800F022804D1686855
:1013F000C003800F01280AD0E068002828681ED0AA
:10140000012108432860FFF7DFFD07460CE028684C
:1014100080070CD5E068012800D108E080E1FFF7E3
:10142000D3FDC01B0228C5D828688007F7D52868D7
:10143000F82188432169C900084328600EE040086C
:1014400040002860FFF7C0FD074604E0FFF7BCFD41
:10145000C01B0228AED828688007F7D42078000780
:1014600023D5E0690028686A0FD00121084368622B
:10147000FFF7AAFD074604E0FFF7A6FDC01B022800
:1014800098D8686A8007F7D50FE040084000686286
:10149000FFF79AFD074605E0C3E0FFF795FDC01B87
:1014A000022887D8686A8007F7D420780427400785
:1014B000002861DA00200190E869C00008D4E969D9
:1014C000B8060143E961E9690140012000910190FA
:1014D00096480168C90511D401688215114301605D
:1014E000FFF772FD009005E0FFF76EFD0099401ACE
:1014F000642898D88D480068C005F5D5A0680128F3
:101500000AD0002801D0052811D0286A40084000E0
:101510002862286AB84302E0286A01210843286249
:10152000A068002812D0FFF74FFD00900AE0286A5B
:1015300038432862F0E7FFF747FD0099411A7C48DD
:1015400081426ED8286A8007F5D50DE0FFF73CFD93
:10155000009006E0FFF738FD0099411A7448814277
:101560005FD8286A8007F5D40198002804D0E9697B
:10157000012000078143E9612078C00635D5606904
:1015800001280CD0401D686B24D038436863686B19
:10159000400840006863FFF717FD074622E0686BCC
:1015A00038436863686B012108436863FFF70CFDEB
:1015B000074604E0FFF708FDC01B022831D8686B1E
:1015C0008007F7D5686BF8218843A169C9000843F3
:1015D00068630AE0B8436863F4E7FFF7F5FCC01BF3
:1015E00002281ED8686B8007F7D42078800637D58C
:1015F00068680007800F032814D068680007800F10
:10160000022804D16868C003800F03280AD0206A2A
:101610000028686B16D030436863FFF7D5FC064698
:101620000CE062E0686B80031AD5206A012877D14C
:1016300016E0FFF7C9FC801B022856D8686B8003B0
:10164000F7D50DE0B0436863FFF7BEFC064604E043
:10165000FFF7BAFC801B022847D8686B8003F7D4D9
:10166000606A002866D069680907890F022942D09C
:10167000012636060228286805D0B0432860FFF707
:10168000A3FC044633E0B0432860FFF79DFC074607
:1016900004E0FFF799FCC01B022826D828688001C7
:1016A000F7D4E86A216B000900010843E862A16AE7
:1016B000E06A084369687B22D2039143084368606B
:1016C000286830432860FFF77FFC044604E0FFF7FA
:1016D0007BFC001B022808D828688001F7D529E088
:1016E000FFF772FC001B022801D90320FEBD286809
:1016F0008001F5D41EE00128F8D06868E96A032269
:10170000D203A36A02409A420AD10907226B090F49
:10171000914205D10F2189040840E16A884209D02D
:101720000120FEBD000001000010024000700040DA
:10173000881300000020F4E7094910B5401E8842D4
:1017400001D9012010BD074C60610321081F00F082
:101750005DFF0020A06107202061002010BD000077
:10176000FFFFFF0000E000E070477047F0B5024661
:101770002032137F012B1ED00125157702235377CA
:1017800006687468B3687027BC430F6827437760A6
:1017900000680A4CA04205D0AC07A04202D0084C19
:1017A000A04204D180244968A3431943816055773E
:1017B00000201077F0BD0220F0BD0000002C014099
:1017C0000004004070B5040005D025462035687F30
:1017D000002802D006E0012070BD002028772046B6
:1017E00000F014F802206877211D206800F08EFCBC
:1017F00001204034A071A877E87720706070A07055
:10180000E070207160716877002070BD08B501221A
:10181000016892070F48914207D1C1690122114323
:10182000C161C0691040009008BD0B4A9142FBD1D4
:101830008269012149040A438261806900220840CB
:10184000009011461520FFF71FFC1520FFF710FC34
:1018500008BD00000010024000440140F8B50546F4
:1018600004462035287F0026012817D0012028773C
:1018700002206877226890687727FF23B8431B020D
:10188000984390600868502838D00EDC20284FD04C
:1018900006DC00284CD010281ED149E00220F8BDFB
:1018A000302845D0402817D13AE060282ED0702843
:1018B00019D001221203801A0FD090420CD1CB68AC
:1018C0004A688968206800F063FC2068816801220A
:1018D00092031143816000E0012601206877002017
:1018E00028773046F8BDCB684A688968206800F0E0
:1018F0004FFC2168886838438860EEE7CA68496809
:10190000206800F058FC5021206806E0CA68496849
:10191000206800F061FC6021206800F044FCDCE7F6
:10192000CA684968206800F046FC40212068F4E756
:10193000226801461046F0E7704770B5044600681B
:1019400001690025C9438907002915DBC168C9431E
:10195000890711D4E91E0161012020772068806980
:101960008007204602D0FFF7E7FF04E000F096F87A
:10197000204600F094F8257720680169C94349079B
:1019800017D4C168C943490713D40421C94301616D
:1019900002202077206880698005800F204602D0D1
:1019A000FFF7CAFF04E000F079F8204600F077F86E
:1019B000257720680169C943090716D4C168C9435E
:1019C000090712D40821C943016104202077206847
:1019D000C0698007204602D0FFF7AEFF04E000F0A8
:1019E0005DF8204600F05BF8257720680169C9435F
:1019F000C90617D4C168C943C90613D41021C94305
:101A00000161082020772068C0698005800F20468A
:101A100002D0FFF791FF04E000F040F8204600F00C
:101A20003EF8257720680169C943C90708D1C16814
:101A3000C943C90704D1891E0161204600F030F86E
:101A400020680169C943090609D4C168C943090668
:101A500005D48021C94301612046FFF785FE206837
:101A60000169C943490609D4C168C943490605D477
:101A70004021C9430161204600F013F82068016944
:101A8000C943890609D4C168C943890605D4202100
:101A9000C94301612046FFF768FE70BD704770477B
:101AA000704770477047704770470000F8B502688C
:101AB0000446D06911689368A44D06462E40254619
:101AC0008035002E71D0A24FDE07F60F0F4037434E
:101AD0007ED0C70706D0CF0504D5012717626A68F4
:101AE0003A436A60820708D5DA0706D027680222DF
:101AF0003A626A6804273A436A60420708D5DA07FF
:101B000006D0236804221A626A6802231A436A60B4
:101B1000020709D520220A40324305D02368082253
:101B20001A626B6813436B60020509D54A0107D539
:101B300001222368D2021A626A6820231A436A606B
:101B40006A68002A39D0800606D5880604D5A16EB9
:101B5000002901D0204688476868216889684906BD
:101B600002D4282108422DD0204600F019FC21681B
:101B70008868400622D5EFF31080012282F3108896
:101B80008A6840239A438A6080F31088606F002837
:101B900014D070494163606FFFF706F900280CD03C
:101BA000606F416B08E000E012E0860610D58E06FB
:101BB0000ED5A16EAEE020468847F8BD2046FFF75F
:101BC00073FFF8BD2046FFF76FFF00206860F8BD87
:101BD000266E012E7ED1C6067CD5CE067AD5102380
:101BE000136222689068264640064036002848DA8C
:101BF000616F086840680004000CE8D0378B8742AA
:101C0000E5D970838869202834D0EFF31080012152
:101C100081F3108811681F01B943116080F31088A7
:101C2000EFF31080012181F3108821688A6852083F
:101C300052008A6080F31088EFF31080012181F355
:101C4000108821688A684027BA438A6080F3108828
:101C50002020286000202066EFF31080012181F30E
:101C6000108821680A689A430A6080F31088606FC0
:101C7000FFF77AF802206066308B718B401A81B2D0
:101C800034E0308B718B401A81B2708B00289ED06B
:101C900000299CD0EFF31080012686F31088166887
:101CA000FF272137BE43166080F31088EFF31080C2
:101CB000012282F310882268966876087600966082
:101CC00080F310882020286000202066A066EFF3B3
:101CD000108000E00EE0012282F31088226815686F
:101CE0009D43156080F31088022060662046FFF750
:101CF000D9FEF8BDC50208D55B0206D50120000556
:101D000010622046FFF7CFFEF8BD030606D50B068E
:101D100004D5E16E002900D04DE7F8BD4006FCD5A2
:101D20004806FAD52046EFF31081012383F310888B
:101D3000146840239C43146081F310882021C167FC
:101D40000021C16600F0F8F8F8BD00000F0800009F
:101D5000200100048D23000810B5040003D0E06FBB
:101D6000002802D007E0012010BD00217820015595
:101D7000204600F027F82420E06720680168490821
:101D800049000160204600F03BFB0128ECD0606A6E
:101D9000002802D0204600F032FA2068416809226B
:101DA000D20291434160206881682A229143816078
:101DB00020680168012211430160204600F084FA86
:101DC00010BD0000F0B587B0044614216846FEF748
:101DD000B9FA264F0121266800222548490402232A
:101DE00003240125BE421DD18769CE103743876188
:101DF00087693740059746690E43466140690193FC
:101E0000084005906002009002AE34C60920694681
:101E1000C006FEF7FFFF002211461B20FFF734F932
:101E20001B201EE0134FBE421DD1C6690E43C66182
:101E3000C6690E40059646690E43466140690193A6
:101E4000084005900C20009002AE34C60920694677
:101E5000C006FEF7DFFF002211461C20FFF714F931
:101E60001C20FFF705F907B0F0BD00000038014065
:101E70000010024000440040FFB50446C06F83B02C
:101E800017460D46202802D0022007B0F0BD002DD5
:101E90000BD0002F09D00120A1680003814206D198
:101EA0002069002803D1E80701D00120EDE70021D7
:101EB000842001512120E067FFF786F8264640364E
:101EC0000190378277820120A1680003814202D10C
:101ED0002069002802D02F46002511E000270FE0DE
:101EE00000228021204600F023FB002815D1002F7E
:101EF00017D02168387808857F1C708A401E708250
:101F0000708A019B002806980090E9D100224021A8
:101F1000204600F00DFB00280AD02020E0670320B7
:101F2000B3E728882168C005C00D0885AD1CE4E72B
:101F30002020E0670020A8E77047FEE730B587B0B3
:101F400014216846FEF7FEF916484269012189040A
:101F50000A43426142690A400592426949100A43B4
:101F60004261406909250840ED0605900022802164
:101F70002846FFF723F8FF20013000240090019449
:101F8000694602940848FEF745FF80200090012032
:101F900001900294694603942846FEF73BFF07B080
:101FA00030BD0000001002400004004810B586B0AB
:101FB000002400940121164801940294039404948F
:101FC0008907059401600721846041600461611EF6
:101FD0008461C160FFF7F6FB002801D072B6FEE70E
:101FE00001200003009069460948FFF737FC0028EC
:101FF00001D072B6FEE7049404A905480594FFF7E2
:10200000B5FB002801D072B6FEE706B010BD000097
:102010001C00002010B50C480A490160E12149026A
:10202000416000218160C16001618161C1610C2258
:10203000016242614162FFF78FFE002801D072B653
:10204000FEE710BD00380140AC00002010B50C4880
:102050000A490160E1214902416000218160C160BB
:1020600001618161C1610C22016242614162FFF73D
:1020700073FE002801D072B6FEE710BD0044004098
:1020800034010020FEE77047704710B5FEF7A2FF4D
:1020900010BD30B597B034216846FEF753F90024DF
:1020A0000D940E940F94182111A81094FEF74AF97C
:1020B000202001250090089509946846FFF73AF919
:1020C000002801D072B6FEE707200D9003200E9085
:1020D0000F94012110940DA8FFF760F8002801D09B
:1020E00072B6FEE711A811951394FEF7D1FF0028F0
:1020F00001D072B6FEE717B030BD704710B5024888
:10210000FFF71BFC10BD000064000020F0B5026862
:102110001A4B0124A4071A4D984203D0A04201D0C3
:10212000A84203D17026B2434E683243154E164F73
:1021300098420AD0A04208D0A84206D0134CA04230
:1021400003D0B04201D0B84204D103242402A243F8
:10215000CC6822438024A2434C69224302608A68EF
:10216000C2620A688262984203D0B04201D0B8428B
:1021700001D10969016301214161F0BD002C0140D9
:10218000000400400044014000480140002000409D
:1021900030B58468FF252D021B021343AC430B436B
:1021A0002343836030BD826870239A430A4307212A
:1021B0000A438260704730B5036A046A64086400A9
:1021C00004628469F025AC43120122430A24A3432C
:1021D0000B438261036230BD30B5036A1024A34310
:1021E00003628469036A0F252D031203AC43224363
:1021F000A024A343090119438261016230BD10B5D7
:10220000818CC90707D001684A6801235B049A439F
:10221000836A1A434A60818C890707D501684A6836
:1022200001231B049A43C36A1A434A60818C4907FD
:1022300007D501684A6801239B049A43036B1A433C
:102240004A60818C090707D501684A680123DB03CE
:102250009A43436B1A434A60818CC90607D50268CA
:10226000916801231B039943836B19439160818C0F
:10227000890607D501688A6801235B039A43C36B0B
:102280001A438A60818C490612D503685A68012175
:102290000905046C8A4322435A60026C8A4207D1C2
:1022A0000268516803235B059943436C19435160ED
:1022B000818C090607D501684A680123DB04806C1C
:1022C0009A4302434A6010BDFEB507460025803799
:1022D00004467D60FEF778FE01902068006826467F
:1022E00000076036002819DA2748009001210022F3
:1022F00049052046019B00F01BF900280ED0EFF3A2
:102300001080012181F3108821680A6880239A4394
:102310000A6080F310882020E06729E020680068C8
:10232000400728D518480090012100228905204641
:10233000019B00F0FDF800281DD0EFF31080012173
:1023400081F3108821680A68FF2321339A430A60C9
:1023500080F31088EFF31080012181F31088216849
:102360008A68520852008A6080F310882020386002
:1023700035760320FEBD2020E0673860256665665F
:1023800035760020FEBD0000FFFFFF0110B5406A5A
:102390000022014640314A834A82FFF785FB10BD87
:1023A00010B5EFF31081012282F3108802681368E0
:1023B000FF242134A343136081F31088EFF31081CD
:1023C000012282F31088026893685B085B009360C7
:1023D00081F31088016E01290BD1EFF310810122E6
:1023E00082F31088026813681024A343136081F3FA
:1023F0001088202280210A5000210166816610BDCC
:1024000070B5044680682169E26908436169002566
:1024100011432268084311683F4B19400143116082
:1024200021684868032212039043E2681043486021
:10243000A169206A084321688A680B231B029A431A
:1024400002438A6035492068884210D13448006BC5
:102450008007800F0ED0012805D0022805D0032860
:102460000AD1022109E0042107E0082105E02D49F5
:10247000884201D1002100E010210120E369C0035E
:10248000294A2A4E834222D1002906D0022907D0A8
:10249000042907D0082935D108E0FEF707FF03E03B
:1024A000104603E0FEF712FF002830D061684000BC
:1024B0004A088018FDF78CFF01461039B14221D837
:1024C0001A49491C01400007400F08431DE000293C
:1024D00006D0022907D0042907D0082912D108E024
:1024E000FEF7E4FE03E0104603E0FEF7EFFE0028EF
:1024F0000DD061684A081018FDF76AFF01461039CF
:10250000B14201D9012502E080B22168C8600020F3
:10251000A066E066284670BDF369FFEF0038014011
:10252000001002400044004000127A00EFFF00005B
:10253000FFB5064681B080360546044660350A9FE1
:102540002EE0781C2CD0FEF73FFD0499401AB842CB
:1025500014D8002F12D020680168490720D5C1691E
:10256000C94309070CD4082707622046FFF718FF64
:10257000776000202876012005B0F0BD0320FBE73E
:10258000C069C04300050BD401202168C002086265
:102590002046FFF705FF2020706000202876EDE739
:1025A0002068C1690298884305D0002103988142C0
:1025B000C7D00020E0E70121F8E7000010B502488D
:1025C000FFF774FA10BD0000AC00002010B50248FF
:1025D000FFF76CFA10BD000034010020F8B5040CC0
:1025E0008BB2264682B25E430D0C1046370C584320
:1025F000360480190021794116466E43370C3604A3
:102600008019794126466E438919F8BD8307FF2258
:10261000DB0E9A408907090E9940002808DB8308E1
:1026200009489B001B1818689043084318607047BE
:102630000007000F0838830804489B001B18D8695E
:1026400090430843D861704700E400E000ED00E0EB
:102650000549401804D0012803D0022801D00814ED
:102660007047002070470000FF7FFFFF02494018BD
:1026700000D0002070470000FF7FFFFF0549401891
:1026800005D0012802D0022801D000207047012087
:1026900070470000FF7FFFFF70B5114D040014D09C
:1026A00020783A2811D10FA12046FDF74DFE0028D1
:1026B0000DD00EA12046FDF747FE002809D00DA140
:1026C0002046FDF741FE002806D0284670BD0B4885
:1026D00070BD0A48401C70BD0848801C70BD0000D9
:1026E000FFFFFFFF3A535444494E00003A5354440D
:1026F0004F5554003A535444455252000180000053
:102700000020C0437047000070B50D460C491446C8
:1027100041180C4812D0012902D002290ED107E03D
:10272000002C0AD028786D1C00F05AF8641EF7E7D8
:10273000002C02D000BE641EFAE7002070BD00002D
:10274000FF7FFFFFFFFFFFFF10B500F04BF810BD4C
:1027500013B56423012269460248FFF78DFB0098F8
:102760001CBD000034010020FEF73CFCFFF791FC8B
:10277000FFF7E4FBFFF76AFCFFF718FC124811496A
:1027800001602F2141600021816001610F4A416198
:10279000C2608161FFF716F8002801D072B6FEE72B
:1027A000FFF738FC0924E406FF25F53508A0FDF7FE
:1027B0009DFD80212046FEF7F9FB2846FEF718FB19
:1027C000F4E700000044014064000020A86100001C
:1027D00068656C6C6F20776F726C64210A00000072
:1027E00000207047704702030405060708090A0B1A
:1027F0000C0D0E0F10100102030405060708090A4C
:102800000B0C0D0E0F100000000000000000010274
:1028100003040607080900000000010203043A53FC
:102820005444494E003A5354444F5554003A53547B
:1028300044455252000000005828000800000020C3
:102840001C00000004010008742800081C0000207F
:10285000FC08000020010008010000000400000046
:102860000000000000127A000000000000000000DC
:042870000000000064
:04000005080000C12E
:00000001FF
