:020000040800F2
:10000000F8080020A101000839190008BF170008EE
:1000100000000000000000000000000000000000E0
:100020000000000000000000000000003D19000872
:1000300000000000000000003B1900083F19000804
:10004000D1010008D1010008D1010008D101000848
:10005000D1010008D1010008D1010008D101000838
:10006000D1010008D1010008D1010008D101000828
:10007000D1010008D1010008D1010008D101000818
:10008000D10100080000000000000000D1010008BC
:1000900000000000B1190008D1010008D1010008DA
:1000A00000000000D1010008D1010008711E000805
:1000B000811E000800000000D1010008D1010008E5
:1000C00000F002F800F040F80CA030C808382418FE
:1000D0002D18A246671EAB4654465D46AC4201D180
:1000E00000F032F87E460F3E0FCCB6460126334272
:1000F00000D0FB1AA246AB4633431847001F00004E
:10010000201F0000103A02D378C878C1FAD85207ED
:1001100001D330C830C101D504680C6070470000BD
:100120000023002400250026103A01D378C1FBD813
:10013000520700D330C100D50B6070471FB500F0E7
:1001400001F91FBD10B510BD00F0D4F91146FFF73D
:10015000F5FF01F0EBFE00F0ECF903B4FFF7F2FF5E
:1001600003BC00F0F3F9000030B40C490C684A6895
:1001700023681068C0181060241D121D8C4207D21D
:100180008A4208D20C604A6030BC40004008704788
:100190000C00DC3CF6E70A00DC3AF3E790020020B2
:1001A0000F4880F308880F480168090E0E4A9142F3
:1001B00005D10E480E4901600E480F4901600F48F5
:1001C00080470F480047FEE7FEE7FEE7FEE7FEE751
:1001D000FEE700000B480C490C4A0D4B704700002D
:1001E000F8080020040000001F0000001810024062
:1001F000010000000000014000000000AF190008ED
:10020000C1000008F8020020F8080020F8040020CF
:10021000F8040020FEB5054610460C46184373D07E
:10022000AE468C460020AD1A01469C4167D3664617
:10023000002701243D46B61A9D4102D313463A4693
:100240002124654676462F04360C3E432D0CB61A03
:100250009D4104D3150C1B042B4312041034654636
:1002600076462F06360A3E432D0AB61A9D4104D320
:10027000150E1B022B4312020834654676462F07E3
:1002800036093E432D09B61A9D4104D3150F1B01B3
:100290002B431201241D65467646AF07B6083E4340
:1002A000AD08B61A9D4104D3950F9B002B439200D5
:1002B000A41C65467646EF0776083E436D08B61ADD
:1002C0009D411AD392185B41641C16E000187646D3
:1002D00065464941B71A9D410191009009D3604696
:1002E000B11A98418E468446009801990025401C19
:1002F0006941DD0752082A435B08641EE6D5724651
:10030000634603B0F0BDFFE700200146C046C0468B
:100310002A462346F5E700000B4A30B511460B4C40
:1003200060310B46DC3B0CC1372106E0020C8D002E
:1003300012185A51064A504300190A46491E002A0B
:10034000F4DC30BD0120E7E730020020E119D66679
:10035000CD0D010001E004C0091F0429FBD28B0769
:1003600001D50280801CC90700D0027070470029A7
:100370000BD0C30702D00270401C491E022904D3CF
:10038000830702D50280801C891EE3E70022EEE786
:100390000022DFE7002203098B422CD3030A8B42A1
:1003A00011D300239C464EE003460B433CD400226D
:1003B00043088B4231D303098B421CD3030A8B427F
:1003C00001D394463FE0C3098B4201D3CB01C01A4D
:1003D000524183098B4201D38B01C01A5241430918
:1003E0008B4201D34B01C01A524103098B4201D306
:1003F0000B01C01A5241C3088B4201D3CB00C01A73
:10040000524183088B4201D38B00C01A52414308EA
:100410008B4201D34B00C01A5241411A00D201460F
:100420005241104670475DE0CA0F00D049420310A8
:1004300000D34042534000229C4603098B422DD3F7
:10044000030A8B4212D3FC22890112BA030A8B429F
:100450000CD3890192118B4208D3890192118B42EE
:1004600004D389013AD0921100E08909C3098B4273
:1004700001D3CB01C01A524183098B4201D38B01B6
:10048000C01A524143098B4201D34B01C01A524159
:1004900003098B4201D30B01C01A5241C3088B429E
:1004A00001D3CB00C01A524183088B4201D38B0089
:1004B000C01A5241D9D243088B4201D34B00C01A13
:1004C0005241411A00D20146634652415B10104628
:1004D00001D34042002B00D54942704763465B1070
:1004E00000D3404201B50020C046C04602BD70475F
:1004F00070477047754600F025F8AE46050069461E
:100500005346C008C000854618B020B5FFF762FE0C
:1005100060BC00274908B6460026C0C5C0C5C0C596
:10052000C0C5C0C5C0C5C0C5C0C5403D49008D4699
:10053000704710B50446C046C0462046FFF70DFE82
:1005400010BD0000004870479802002001491820A3
:10055000ABBEFEE726000200704730B501462031F1
:100560004B780022022B04D0042383630A700120FD
:1005700030BD03681C680E25AC431C6003681C6812
:10058000640864001C600123056C1C46C06BAC4011
:1005900044604B700A70002030BD70B500240146E5
:1005A00020314A78022A03D004218163012416E015
:1005B000026813680E25AB431360026813685B087A
:1005C0005B0013600122056C1346AB40C56B6B608A
:1005D0004A7000220A70416B002900D088472046EB
:1005E00070BD000070B5044600F0E8F80546601CD8
:1005F00002D004480078241800F0E0F8401BA04224
:10060000FAD370BD04000020F8B5002303240125AF
:10061000B5E02E469E40B44632407CD00E79B607F7
:10062000B60F012E01D0022E17D186682746B64696
:100630005E00B74000967646BE43B646CF68009E41
:10064000B74076463743876046686746BE430F79B2
:10065000FF06FF0F9F40374347600E79F643B6070A
:100660000ED0C6682746B4465E00B646B74066461A
:10067000BE43B4468F687646B74066463743C76088
:100680000E79B607B60F022E14D1DE08B600361862
:100690000096366A5F07B446FE0E0F27B646B7408F
:1006A0006646BE43B4460F697646B7406646374352
:1006B000009E376206682746B4465E00B646B740DD
:1006C0006646BE430F79B446BF07BF0F7646B740B4
:1006D0006646374307604E68B603B60F4ED02B4FC1
:1006E000BE692E43BE61BE699F08F607F60F284E0D
:1006F000BF00BE190096B6680F27B4469E07360F96
:10070000B646B7406646BE430927FF06B446B84220
:1007100002D100270BE031E01E4FB84201D1012782
:1007200005E01D4FB84201D1022700E005277646BB
:10073000B74066463743009EB760184EB6684F68AC
:100740009643FF0200D51643144FBE60FE684F6803
:100750009643BF0200D51643104FFE607E684F6877
:100760009643BF0300D516430C4F7E603E684F682A
:100770009643FF0300D51643084A16605B1C0A68BF
:100780001646DE4000D044E7F8BD000000100240ED
:100790000000014000040048000800480004014037
:1007A000426913460B401B0491430B43836170471E
:1007B000002A01D0816170478162704701488068DA
:1007C0007047000004000020024881680278891800
:1007D000816070470400002010B5064801681022AF
:1007E00011430160032000F007F800F027F8002013
:1007F00010BD00000020024070B504460D4D7D2064
:100800002978C000FFF7C6FD01460B480068FFF7D6
:10081000C1FD00F08BFB002809D1042C07D2002277
:100820002146401E00F02AF800206C6070BD0120B7
:1008300070BD0000040000201000002008B508482A
:100840008169012211438161816911400091C2696E
:1008500001040A43C261C0690840009008BD00005D
:1008600000100240002805DBC106C90E01208840A7
:10087000014908607047000000E100E010B501F098
:100880001FFB10BDF8B5044600683E4DC00352D5AD
:10089000E8690026C00007D4E96928040143E9613A
:1008A000E96901400126009137480168C90510D463
:1008B0000168821511430160FFF780FF074604E0DD
:1008C000FFF77CFFC01B642824D82F480068C005B0
:1008D000F6D5286A03273F02384020D061683940A6
:1008E00081421CD0286A2A6AB843012109040A43BC
:1008F0002A622A6A8A432A622862C0070FD0FFF759
:100900005DFF009008E0FFF759FF0099411A1F486A
:10091000814201D90320F8BD286A8007F3D5286AEF
:100920006168B84308432862002E04D0E9690120B9
:1009300000078143E9612078C00705D0286BA168D2
:1009400080088000084328632078800605D5286B3E
:1009500010218843E168084328632068800305D597
:10096000286B8021884361690843286320884005FB
:1009700005D5286B4021884321690843286300205E
:10098000F8BD000000100240007000408813000015
:10099000F8B50F4606005ED03C4D2868C007C00F72
:1009A000B84209D2286840084000384328602868C7
:1009B000C007C00FB8424ED13068354C81070CD506
:1009C000400704D560680721090208436060606839
:1009D000F0218843B168084360603078C0072BD0AD
:1009E0007068012810D0022810D0032811D0216887
:1009F000890700292FDA616889088900014361604D
:100A0000FFF7DCFE009010E0216803E02168890117
:100A1000EFE7616B8903ECE7FFF7D0FE0099411A1D
:100A20001C48814201D90320F8BD60680C210840B0
:100A3000716889008842EFD12868C007C00FB842AA
:100A40000BD9286840084000384328602868C00750
:100A5000C00FB84201D00120F8BD3078400706D55C
:100A60006068072109028843F1680843606000F06C
:100A700027F86168084A0906090F515CC840074910
:100A800008600320FFF7B8FE0020F8BD00200240F8
:100A90000010024088130000E41F0008100000202E
:100AA0000448054900684968044A4905490F515CF2
:100AB000C84070471000002000100240F41F0008DA
:100AC00070B5154A51680C200B4603401348042B9F
:100AD00005D0134D082B03D00C2B00D1284670BD38
:100AE0008B02104C1B0FE45CD26A0E4B1207120FE4
:100AF0001033C9039A5C890F022901D0032901D060
:100B0000002301E0002328460021FFF783FB214654
:100B100001F0BEF970BD00000010024000127A0022
:100B2000006CDC02C41F0008FEB5040070D0207801
:100B3000F94EFA4DC00748D068680007800F0128B9
:100B40001FD068680007800F022804D16868C003BE
:100B5000800F022815D06168012919D00120800476
:100B6000002901D0052917D02968B14329602968D7
:100B700081432960606800281BD0FFF71FFE0746ED
:100B800013E02868800320D560680028CED01CE0E0
:100B9000286830432860EDE7296801432960F7E7BA
:100BA000FFF70CFEC01B642870D828688003F7D5B7
:100BB0000BE0FFF703FE074604E0FFF7FFFDC01B55
:100BC0006428F1D828688003F7D4207880073FD5BF
:100BD00068680007800F14D068680007800F02283B
:100BE00004D16868C003800F01280AD0E06800289B
:100BF00028681ED0012108432860FFF7DFFD074663
:100C00000CE0286880070CD5E068012800D108E0D6
:100C100080E1FFF7D3FDC01B0228C5D828688007F4
:100C2000F7D52868F82188432169C900084328605E
:100C30000EE0400840002860FFF7C0FD074604E0D2
:100C4000FFF7BCFDC01B0228AED828688007F7D488
:100C50002078000723D5E0690028686A0FD00121B9
:100C600008436862FFF7AAFD074604E0FFF7A6FD08
:100C7000C01B022898D8686A8007F7D50FE04008A3
:100C800040006862FFF79AFD074605E0C3E0FFF702
:100C900095FDC01B022887D8686A8007F7D42078A2
:100CA00004274007002861DA00200190E869C000AD
:100CB00008D4E969B8060143E961E9690140012006
:100CC0000091019096480168C90511D40168821508
:100CD00011430160FFF772FD009005E0FFF76EFD24
:100CE0000099401A642898D88D480068C005F5D549
:100CF000A06801280AD0002801D0052811D0286A50
:100D0000400840002862286AB84302E0286A0121AE
:100D100008432862A068002812D0FFF74FFD00901A
:100D20000AE0286A38432862F0E7FFF747FD009998
:100D3000411A7C4881426ED8286A8007F5D50DE0BB
:100D4000FFF73CFD009006E0FFF738FD0099411ADF
:100D5000744881425FD8286A8007F5D4019800283A
:100D600004D0E969012000078143E9612078C006C9
:100D700035D5606901280CD0401D686B24D03843FC
:100D80006863686B400840006863FFF717FD07461B
:100D900022E0686B38436863686B0121084368632D
:100DA000FFF70CFD074604E0FFF708FDC01B022813
:100DB00031D8686B8007F7D5686BF8218843A16943
:100DC000C900084368630AE0B8436863F4E7FFF7C3
:100DD000F5FCC01B02281ED8686B8007F7D420786A
:100DE000800637D568680007800F032814D068682C
:100DF0000007800F022804D16868C003800F032811
:100E00000AD0206A0028686B16D030436863FFF769
:100E1000D5FC06460CE062E0686B80031AD5206AB8
:100E2000012877D116E0FFF7C9FC801B022856D8AD
:100E3000686B8003F7D50DE0B0436863FFF7BEFC35
:100E4000064604E0FFF7BAFC801B022847D8686B0F
:100E50008003F7D4606A002866D069680907890FA3
:100E6000022942D0012636060228286805D0B04360
:100E70002860FFF7A3FC044633E0B0432860FFF787
:100E80009DFC074604E0FFF799FCC01B022826D80A
:100E900028688001F7D4E86A216B00090001084343
:100EA000E862A16AE06A084369687B22D203914341
:100EB00008436860286830432860FFF77FFC0446D9
:100EC00004E0FFF77BFC001B022808D8286880019B
:100ED000F7D529E0FFF772FC001B022801D9032097
:100EE000FEBD28688001F5D41EE00128F8D06868AE
:100EF000E96A0322D203A36A02409A420AD109078F
:100F0000226B090F914205D10F2189040840E16A43
:100F1000884209D00120FEBD0000010000100240FF
:100F200000700040881300000020F4E7094910B564
:100F3000401E884201D9012010BD074C6061032189
:100F4000081F00F0BDFF0020A061072020610020E5
:100F500010BD0000FFFFFF0000E000E07047704799
:100F6000F0B502462032137F012B1ED001251577E4
:100F70000223537706687468B3687027BC430F6810
:100F80002743776000680A4CA04205D0AC07A04216
:100F900002D0084CA04204D180244968A3431943DD
:100FA0008160557700201077F0BD0220F0BD000071
:100FB000002C01400004004070B5040005D0254617
:100FC0002035687F002802D006E0012070BD002097
:100FD0002877204600F014F802206877211D206849
:100FE00000F0EEFC01204034A071A877E877207073
:100FF0006070A070E070207160716877002070BD33
:1010000008B50122016892070F48914207D1C169D2
:1010100001221143C161C0691040009008BD0B4A14
:101020009142FBD18269012149040A4382618069AE
:1010300000220840009011461520FFF71FFC1520E4
:10104000FFF710FC08BD0000001002400044014002
:10105000014620314A7F012A01D001207047022237
:101060004A770068094A0121904205D08A079042D8
:1010700002D0074A904204D182685207520F062AD2
:1010800002D002680A43026000207047002C014031
:1010900000040040014620314A7F012A01D001208E
:1010A000704702224A770268D36801210B43D3605C
:1010B0000068094A904205D08A07904202D0074A48
:1010C000904204D182685207520F062A02D0026869
:1010D0000A43026000207047002C014000040040D9
:1010E000F8B5054604462035287F0026012817D08C
:1010F0000120287702206877226890687727FF23ED
:10110000B8431B02984390600868502838D00EDC22
:1011100020284FD006DC00284CD010281ED149E0F2
:101120000220F8BD302845D0402817D13AE0602889
:101130002ED0702819D001221203801A0FD09042AD
:101140000CD1CB684A688968206800F07BFC206875
:101150008168012292031143816000E00126012091
:101160006877002028773046F8BDCB684A688968E0
:10117000206800F067FC2168886838438860EEE7E3
:10118000CA684968206800F070FC5021206806E0B9
:10119000CA684968206800F079FC6021206800F086
:1011A0005CFCDCE7CA684968206800F05EFC40210E
:1011B0002068F4E7226801461046F0E7704770B5F2
:1011C0000446006801690025C9438907002915DB29
:1011D000C168C943890711D4E91E01610120207744
:1011E000206880698007204602D0FFF7E7FF04E00F
:1011F00000F096F8204600F094F825772068016901
:10120000C943490717D4C168C943490713D4042106
:10121000C943016102202077206880698005800F22
:10122000204602D0FFF7CAFF04E000F079F820461C
:1012300000F077F8257720680169C943090716D4BB
:10124000C168C943090712D40821C94301610420B8
:1012500020772068C0698007204602D0FFF7AEFFE4
:1012600004E000F05DF8204600F05BF82577206888
:101270000169C943C90617D4C168C943C90613D453
:101280001021C9430161082020772068C0698005CA
:10129000800F204602D0FFF791FF04E000F040F8F5
:1012A000204600F03EF8257720680169C943C90748
:1012B00008D1C168C943C90704D1891E016120460C
:1012C00000F030F820680169C943090609D4C168F3
:1012D000C943090605D48021C94301612046FFF7AF
:1012E0003DFE20680169C943490609D4C168C94364
:1012F000490605D44021C9430161204600F013F896
:1013000020680169C943890609D4C168C9438906AF
:1013100005D42021C94301612046FFF720FE70BD9E
:1013200070477047704770477047704770470000BC
:10133000F8B502680446D06911689368A44D064662
:101340002E4025468035002E71D0A24FDE07F60FC5
:101350000F4037437ED0C70706D0CF0504D50127FD
:1013600017626A683A436A60820708D5DA0706D0CE
:10137000276802223A626A6804273A436A60420791
:1013800008D5DA0706D0236804221A626A680223A5
:101390001A436A60020709D520220A40324305D069
:1013A000236808221A626B6813436B60020509D533
:1013B0004A0107D501222368D2021A626A682023F3
:1013C0001A436A606A68002A39D0800606D5880602
:1013D00004D5A16E002901D020468847686821689D
:1013E0008968490602D4282108422DD0204600F001
:1013F00031FC21688868400622D5EFF31080012275
:1014000082F310888A6840239A438A6080F31088A8
:10141000606F002814D070494163606FFFF7BDF81A
:1014200000280CD0606F416B08E000E012E08606F7
:1014300010D58E060ED5A16EAEE020468847F8BDC9
:101440002046FFF773FFF8BD2046FFF76FFF00202F
:101450006860F8BD266E012E7ED1C6067CD5CE060C
:101460007AD51023136222689068264640064036DB
:10147000002848DA616F086840680004000CE8D072
:10148000378B8742E5D970838869202834D0EFF301
:101490001080012181F3108811681F01B943116088
:1014A00080F31088EFF31080012181F31088216808
:1014B0008A68520852008A6080F31088EFF3108027
:1014C000012181F3108821688A684027BA438A6025
:1014D00080F310882020286000202066EFF3108021
:1014E000012181F3108821680A689A430A6080F319
:1014F0001088606FFFF731F802206066308B718BC7
:10150000401A81B234E0308B718B401A81B2708BFB
:1015100000289ED000299CD0EFF31080012686F38E
:1015200010881668FF272137BE43166080F31088A5
:10153000EFF31080012282F3108822689668760803
:101540007600966080F310882020286000202066B6
:10155000A066EFF3108000E00EE0012282F3108815
:10156000226815689D43156080F31088022060662C
:101570002046FFF7D9FEF8BDC50208D55B0206D5A7
:101580000120000510622046FFF7CFFEF8BD0306DC
:1015900006D50B0604D5E16E002900D04DE7F8BD55
:1015A0004006FCD54806FAD52046EFF3108101230A
:1015B00083F31088146840239C43146081F31088DF
:1015C0002021C1670021C16600F0F8F8F8BD0000D5
:1015D0000F08000020010004411C000810B50400A1
:1015E00003D0E06F002802D007E0012010BD0021E9
:1015F00078200155204600F027F82420E067206875
:101600000168490849000160204600F053FB0128A9
:10161000ECD0606A002802D0204600F04AFA206828
:1016200041680922D20291434160206881682A22E0
:1016300091438160206801680122114301602046C6
:1016400000F09CFA10BD0000F0B587B004461421EC
:101650006846FEF79DFE264F012126680022254898
:101660004904022303240125BE421DD18769CE10FF
:101670003743876187693740059746690E4346615E
:1016800040690193084005906002009002AE34C6A4
:1016900009206946C006FEF7B7FF002211461B204D
:1016A000FFF7ECF81B201EE0134FBE421DD1C669A8
:1016B0000E43C661C6690E40059646690E434661F3
:1016C00040690193084005900C20009002AE34C69A
:1016D00009206946C006FEF797FF002211461C202C
:1016E000FFF7CCF81C20FFF7BDF807B0F0BD0000F5
:1016F000003801400010024000440040FFB504469D
:10170000C06F83B017460D46202802D0022007B0D4
:10171000F0BD002D0BD0002F09D00120A1680003DF
:10172000814206D12069002803D1E80701D00120B9
:10173000EDE70021842001512120E067FFF73EF80A
:10174000264640360190378277820120A168000347
:10175000814202D12069002802D02F46002511E0E5
:1017600000270FE000228021204600F03BFB0028EC
:1017700015D1002F17D02168387808857F1C708A12
:10178000401E7082708A019B002806980090E9D163
:1017900000224021204600F025FB00280AD020200E
:1017A000E0670320B3E728882168C005C00D0885DD
:1017B000AD1CE4E72020E0670020A8E77047FEE7C3
:1017C00030B587B014216846FEF7E2FD2148426932
:1017D000012189040A43426142690A400592426933
:1017E00009010A43426142690A400592426949116E
:1017F0000A434261406909250840ED060590002230
:1018000080212846FEF7D4FFFF20033000240090FB
:101810000194694602941048FEF7F6FE03200090FA
:101820000194694602940D48FEF7EEFE13200090E5
:101830000194694602942846FEF7E6FE8020009057
:10184000012001900294694603942846FEF7DCFECD
:1018500007B030BD001002400004004800140048EA
:1018600010B586B00024009401211648019402941A
:101870000394049489070594016007218460416002
:101880000461611E8461C160FFF796FB002801D0EE
:1018900072B6FEE701200003009069460948FFF791
:1018A0001FFC002801D072B6FEE7049404A9054885
:1018B0000594FFF755FB002801D072B6FEE706B08D
:1018C00010BD00001400002010B50C480A4901604A
:1018D000E1214902416000218160C16001618161B3
:1018E000C1610C22016242614162FFF777FE00286C
:1018F00001D072B6FEE710BD00380140A400002000
:1019000010B50C480A490160E121490241600021FB
:101910008160C16001618161C1610C22016242612B
:101920004162FFF75BFE002801D072B6FEE710BDF2
:10193000004400402C010020FEE77047704710B5BE
:10194000FEF742FF10BD30B597B034216846FEF770
:101950001FFD00240D940E940F94182111A81094CB
:10196000FEF716FD20200125009008950994684691
:10197000FFF7DAF8002801D072B6FEE707200D90D5
:1019800003200E900F94012110940DA8FFF700F88A
:10199000002801D072B6FEE711A811951394FEF746
:1019A00071FF002801D072B6FEE717B030BD704756
:1019B00010B50248FFF703FC10BD00005C000020DA
:1019C000F0B502681A4B0124A4071A4D984203D0BF
:1019D000A04201D0A84203D17026B2434E683243E0
:1019E000154E164F98420AD0A04208D0A84206D001
:1019F000134CA04203D0B04201D0B84204D103241A
:101A00002402A243CC6822438024A2434C6922438F
:101A100002608A68C2620A688262984203D0B04259
:101A200001D0B84201D10969016301214161F0BDD2
:101A3000002C0140000400400044014000480140E7
:101A40000020004030B58468FF252D021B0213439F
:101A5000AC430B432343836030BD826870239A43B9
:101A60000A4307210A438260704730B5036A046A5B
:101A70006408640004628469F025AC4312012243C7
:101A80000A24A3430B438261036230BD30B5036A6D
:101A90001024A34303628469036A0F252D031203F4
:101AA000AC432243A024A34309011943826101628C
:101AB00030BD10B5818CC90707D001684A68012381
:101AC0005B049A43836A1A434A60818C890707D56D
:101AD00001684A6801231B049A43C36A1A434A6097
:101AE000818C490707D501684A6801239B049A4302
:101AF000036B1A434A60818C090707D501684A685D
:101B00000123DB039A43436B1A434A60818CC90665
:101B100007D50268916801231B039943836B19431E
:101B20009160818C890607D501688A6801235B036F
:101B30009A43C36B1A438A60818C490612D50368A5
:101B40005A6801210905046C8A4322435A60026CD9
:101B50008A4207D10268516803235B059943436CAD
:101B600019435160818C090607D501684A68012331
:101B7000DB04806C9A4302434A6010BDFEB5074601
:101B80000025803704467D60FEF718FE019020682E
:101B90000068264600076036002819DA27480090BA
:101BA0000121002249052046019B00F01BF9002875
:101BB0000ED0EFF31080012181F3108821680A68AC
:101BC00080239A430A6080F310882020E06729E090
:101BD00020680068400728D518480090012100229D
:101BE00089052046019B00F0FDF800281DD0EFF389
:101BF0001080012181F3108821680A68FF232133B6
:101C00009A430A6080F31088EFF31080012181F37A
:101C1000108821688A68520852008A6080F3108810
:101C20002020386035760320FEBD2020E067386034
:101C30002566656635760020FEBD0000FFFFFF01CA
:101C400010B5406A0022014640314A834A82FFF7BC
:101C50006DFB10BD10B5EFF31081012282F31088E7
:101C600002681368FF242134A343136081F31088B2
:101C7000EFF31081012282F31088026893685B08F9
:101C80005B00936081F31088016E01290BD1EFF3A3
:101C90001081012282F31088026813681024A34384
:101CA000136081F31088202280210A5000210166F0
:101CB000816610BD70B5044680682169E2690843F9
:101CC0006169002511432268084311683F4B1940A0
:101CD0000143116021684868032212039043E268BF
:101CE00010434860A169206A084321688A680B2371
:101CF0001B029A4302438A6035492068884210D10A
:101D00003448006B8007800F0ED0012805D00228D0
:101D100005D003280AD1022109E0042107E00821A7
:101D200005E02D49884201D1002100E01021012069
:101D3000E369C003294A2A4E834222D1002906D0F2
:101D4000022907D0042907D0082935D108E0FEF779
:101D5000A7FE03E0104603E0FEF7B2FE002830D0F5
:101D6000616840004A088018FEF714FB01461039EC
:101D7000B14221D81A49491C01400007400F0843CD
:101D80001DE0002906D0022907D0042907D0082920
:101D900012D108E0FEF784FE03E0104603E0FEF7F0
:101DA0008FFE00280DD061684A081018FEF7F2FA7D
:101DB00001461039B14201D9012502E080B2216803
:101DC000C8600020A066E066284670BDF369FFEF9A
:101DD00000380140001002400044004000127A0028
:101DE000EFFF0000FFB5064681B080360546044689
:101DF00060350A9F2EE0781C2CD0FEF7DFFC04999A
:101E0000401AB84214D8002F12D020680168490740
:101E100020D5C169C94309070CD4082707622046A9
:101E2000FFF718FF776000202876012005B0F0BD8D
:101E30000320FBE7C069C04300050BD401202168E3
:101E4000C00208622046FFF705FF202070600020D6
:101E50002876EDE72068C1690298884305D0002103
:101E600003988142C7D00020E0E70121F8E7000095
:101E700010B50248FFF75CFA10BD0000A400002076
:101E800010B50248FFF754FA10BD00002C010020E5
:101E9000F8B5040C8BB2264682B25E430D0C104698
:101EA000370C5843360480190021794116466E4399
:101EB000370C36048019794126466E438919F8BDDE
:101EC0008307FF22DB0E9A408907090E99400028FC
:101ED00008DB830809489B001B18186890430843D7
:101EE000186070470007000F0838830804489B00FB
:101EF0001B18D86990430843D861704700E400E09C
:101F000000ED00E010B508480068406AFEF704FAEA
:101F1000FEF72AF9C117090F091809090901401A22
:101F20000A214843323010BD14000020FEF754FC53
:101F3000FFF709FDFFF744FCFFF7E2FCFFF790FC19
:101F400018481749016000242F2184604160046112
:101F5000446115498461C160FFF72EF8002801D063
:101F600072B6FEE7FFF7B0FC0E484838FFF770F88E
:101F70000C48FFF78FF80D4D2C700924E40601E0A2
:101F80000028FDD1FFF7BEFFFEF72CFB3F2000F03D
:101F90000FF880212046FEF703FC2878F0E70000C8
:101FA000004401405C000020A86100000000002007
:101FB00001B50A23012269460148FFF79FFB08BDCE
:101FC000A400002002030405060708090A0B0C0DF3
:101FD0000E0F10100102030405060708090A0B0C76
:101FE0000D0E0F10000000000000000001020304AD
:101FF0000607080900000000010203041C20000875
:102000000000002014000000040100083020000837
:1020100014000020E4080000200100080000000077
:1020200001000000040000000000000000127A001F
:04000005080000C12E
:00000001FF
